:020000040000FA
:10000000020026AF885388AF758D96EF5440FEEFFF
:1000100054104E428822E4F5A77597DE7597AD22FD
:0200200022229A
:100023000200B5120020787FE4F6D8FD75814D02F9
:100033000070020138E493A3F8E493A34003F6802D
:1000430001F208DFF48029E493A3F85407240CC8D1
:10005300C333C4540F4420C8834004F4568001467C
:10006300F6DFE4800B01020408102040809001AF0A
:10007300E47E019360BCA3FF543F30E509541FFEA7
:10008300E493A360010ECF54C025E060A840B8E418
:1000930093A3FAE493A3F8E493A3C8C582C8CAC59B
:1000A30083CAF0A3C8C582C8CAC583CADFE9DEE72D
:1000B30080BEC0E0C0D075D000C000C006C007300D
:1000C3009824AF0C7E00EF7002F50AC29885990957
:1000D300C3EF9440EE64809480500B740D250AF8AE
:1000E300A609050C050A309941C299E50C64016023
:1000F30033E50CB50A03750B00740D250BF8E6F513
:1001030009FFC39461748094804010D3EF947A7490
:10011300809480500674E02509F509850999050B3B
:10012300150C8006750C00750801D007D006D000A9
:10013300D0D0D0E032120163C2B4D2A2D2AFE5086C
:10014300640170FAE50C60F6E509640D600BE509DE
:10015300640A6005E509B47EE5E4F508D29980DE1A
:1001630085A74D12001612018B12019D1201BF12B9
:1001730001C91200211201DD1200031201D3120181
:10018300E31201E7854DA7227580FF75A41075F171
:10019300FFE4F5D4F5FE75FDFF227590FFE4F5A5A8
:1001A30075F27F75D580F5EE75EDFF22010C000128
:1001B3000A00010B000108010109000075A6097579
:1001C300A72075CC0922E4F5A775E34075E1012268
:1001D300758E0875892043884022E4F5A9F5A92284
:0801E3004398102275A81022B8
:00000001FF
