:020000040000FA
:100000000208E4E4750B01F50AF509F508750B0122
:10001000F50AF509F5087F807E1A7D067C00AB0B9A
:10002000AA0AA909A808D312008B5017E50B2401CE
:10003000F50BE4350AF50AE43509F509E43508F568
:100040000880D32285A7081208001200B01200B75A
:1000500012009C1200781200A61200BE8508A7228A
:1000600012004443E34043F20143A501D290120041
:1000700003C29012000380F4AF885388AF758D9649
:10008000EF5440FEEF54104E428822EB9FF5F0EA09
:100090009E42F0E99D42F0E89C45F022E4F5A9E596
:1000A000A9548060FA22758E087589204388402201
:0F00B00075A41075F1302275E34075E10122222D
:10080000E4F5A77597A5F50CF50BF50AF509E47F56
:1008100019FEFDFCAB0CAA0BA90AA809C312008B98
:10082000501800E50C2401F50CE4350BF50BE4350C
:100830000AF50AE43509F50980D4A2AF9200C2AFE7
:0B0840007597DE7597ADA20092AF2205
:0C08E400787FE4F6D8FD758120020060EA
:00000001FF
