:020000040000FA
:10000000020C98EB9FF5F0EA9E42F0E99D42F0E881
:100010009C45F022BB010689828A83E0225002E7D8
:1000200022BBFE02E32289828A83E49322BB010C75
:10003000E58229F582E5833AF583E0225006E92539
:1000400082F8E622BBFE06E92582F8E222E5822953
:10005000F582E5833AF583E49322BB010689828A1F
:1000600083F0225002F722BBFE01F322FAE6FB08DE
:1000700008E6F925F0F618E6CA3AF622D083D082CF
:10008000F8E4937012740193700DA3A393F87401B4
:1000900093F5828883E4737402936860EFA3A3A34B
:1000A00080DFE4F5A77597A5F50CF50BF50AF509C2
:1000B000E47F19FEFDFCAB0CAA0BA90AA809C31228
:1000C0000003501800E50C2401F50CE4350BF50B8A
:1000D000E4350AF50AE43509F50980D4A2AF9200A7
:1000E000C2AF7597DE7597ADA20092AF2285A708C3
:1000F0001200A212015312015A12013F12011C12E6
:1001000001491201648508A722BF0A083099FDC27F
:100110009975990D3099FDC2998F9922AF885388AE
:10012000AF758D96EF5440FEEF54104E4288221268
:1001300000EDD2997BFF7A01796512086280FEE4B6
:10014000F5A9E5A9548060FA22758E0875892043C7
:1001500088402275A41075F1302275E34075E101E5
:10016000220201092248656C6C6F20383035310A53
:01017000008E
:10080000E517240BF8E60517227808300702780B65
:10081000E475F00112006C0200142000EB7F2ED270
:10082000008018EF540F2490D43440D4FF30040BD0
:10083000EF24BFB41A0050032461FFE518600215CD
:1008400018051BE51B7002051A30070D7808E475C2
:10085000F00112006CEF02005A0201617403D2072A
:100860008003E4C207F5178B088A09890AE4F518A2
:10087000F51AF51BE51860077F2012083B80F57517
:1008800019FFC201C200C202C203C205C206C208E9
:10089000120809FF700D3007057F0012084CAF1BCE
:1008A000AE1A22B4255FC2D5C204120809FF24D0B3
:1008B000B40A00501A75F00A781830D50508B6FF4A
:1008C0000106C6A426F620D5047002D20380D924DE
:1008D000CFB41A00EF5004C2E5D204020A4CD20190
:1008E00080C6D20080C0D20280BCD2D580BAD205E8
:1008F00080B47F2012083B2002077401B518004025
:10090000F1120800FF12083B020874D208D20680D8
:1009100095120800FB120800FA120800F94A4B7001
:1009200006791D7A0B7BFF20022EE518602A7E00D7
:100930008E8275830012002D60060EEE651970F030
:10094000C2D5EBC0E0EAC0E0E9C0E0EE120A93D005
:10095000E0F9D0E0FAD0E0FB120014FF60AAEBC08F
:10096000E0EAC0E0E9C0E012083BD0E02401F9D0A1
:10097000E03400FAD0E0FBE5190460DCD519D98039
:10098000877BFF7A0A798FD202809C791080027966
:1009900008C206C2088008D2D5790A8004790AC242
:1009A000D5E519047002F519E4FAFDFEFF120800FE
:1009B000FC7B08200113120800FD7B1030000A1296
:1009C0000800FE120800FF7B20EC3382D592D55040
:1009D00013C3E43000069FFFE49EFEE42001039D64
:1009E000FDE49CFCE4CBF8C201EC700CCFCECDCC86
:1009F000E824F8F870F38017C3EF33FFEE33FEED11
:100A000033FDEC33FCEB33FB994002FB0FD8E9EBF1
:100A1000300105F8D0E0C448B201C0E00AEC4D4E08
:100A20004F78207B0070C2EAB5190040BCC0E012CC
:100A30000A95D0F0D0E0200104C4C0E0C4B201C0E7
:100A4000F0120824D0F0D5F0EB02087412007C09F3
:100A50001153098B5808E24C08DE42098F4F099761
:100A60004409974908F743099D550981460981457D
:100A70000981470B3D5008E62D08EA2E090D2B0889
:100A8000EE23090B200B262A08A648000009053F83
:100A90003F3F00790AA2D5200314300509B910029E
:100AA0000404B9080104A2D5200602500104200262
:100AB000689202B518005034C0E07F203003197FDF
:100AC00030A20272067205500F120AECC202C20670
:100AD000C205C2087F30800F300503E9C0E012086C
:100AE0003B300503D0E0F9D0E0B518CC3005177FD6
:100AF00030B9100C12083B7F583004077F78800310
:100B0000B9080312083B3002057F2D02083B7F2005
:100B10002008F87F2B2006F322920280CF286E75E2
:100B20006C6C2900D2011208003001F8C20178185B
:100B300030D50108F60208A62D5043495812080086
:100B40002403B405004001E4900B389312082C7480
:0C0B50003A12082CD20375180402098B1D
:0C0C9800787FE4F6D8FD75812102012F61
:00000001FF
