:020000040000FA
:100000000208AC12005712006E12006475A950D29B
:1000100093120031C29312001B80F4758E02758911
:1000200001758AB2758CC1D28C308DFDC28CC28DA7
:1000300022758E02D28CE4F589F58A758CFB308DA1
:10004000FDC28CC28D22EB9FF5F0EA9E42F0E99D45
:1000500042F0E89C45F02285A708120800120075BE
:100060008508A72243E34043F20843A50822759779
:09007000DE7597AD2275E3402214
:10080000E4F5A77597A5F50CF50BF50AF509E47F56
:1008100019FEFDFCAB0CAA0BA90AA809C3120046DD
:10082000501800E50C2401F50CE4350BF50BE4350C
:100830000AF50AE43509F50980D4A2AF9200C2AFE7
:0B0840007597DE7597ADA20092AF2205
:0C08AC00787FE4F6D8FD7581200200037F
:00000001FF
